{"abi":[{"type":"function","name":"bestRecordedScore","inputs":[{"name":"","type":"address","internalType":"address"}],"outputs":[{"name":"","type":"uint256","internalType":"uint256"}],"stateMutability":"view"},{"type":"function","name":"lastSeenAt","inputs":[{"name":"","type":"address","internalType":"address"}],"outputs":[{"name":"","type":"uint256","internalType":"uint256"}],"stateMutability":"view"},{"type":"function","name":"playerPresenceCount","inputs":[{"name":"","type":"address","internalType":"address"}],"outputs":[{"name":"","type":"uint256","internalType":"uint256"}],"stateMutability":"view"},{"type":"function","name":"recordPresence","inputs":[{"name":"score","type":"uint256","internalType":"uint256"}],"outputs":[],"stateMutability":"nonpayable"},{"type":"function","name":"totalPresenceRecords","inputs":[],"outputs":[{"name":"","type":"uint256","internalType":"uint256"}],"stateMutability":"view"},{"type":"event","name":"PresenceRecorded","inputs":[{"name":"player","type":"address","indexed":true,"internalType":"address"},{"name":"score","type":"uint256","indexed":true,"internalType":"uint256"},{"name":"timestamp","type":"uint256","indexed":false,"internalType":"uint256"},{"name":"playerPresenceCount","type":"uint256","indexed":false,"internalType":"uint256"},{"name":"totalPresenceRecords","type":"uint256","indexed":false,"internalType":"uint256"}],"anonymous":false}],"bytecode":{"object":"0x608060405234801561000f575f80fd5b5061050a8061001d5f395ff3fe608060405234801561000f575f80fd5b5060043610610055575f3560e01c80631be763be14610059578063243e9aba1461007757806373895bf7146100a7578063959f93d6146100d7578063fe36910314610107575b5f80fd5b610061610123565b60405161006e9190610348565b60405180910390f35b610091600480360381019061008c91906103bf565b610128565b60405161009e9190610348565b60405180910390f35b6100c160048036038101906100bc91906103bf565b61013d565b6040516100ce9190610348565b60405180910390f35b6100f160048036038101906100ec91906103bf565b610152565b6040516100fe9190610348565b60405180910390f35b610121600480360381019061011c9190610414565b610167565b005b5f5481565b6003602052805f5260405f205f915090505481565b6002602052805f5260405f205f915090505481565b6001602052805f5260405f205f915090505481565b60015f80828254610178919061046c565b925050819055506001805f3373ffffffffffffffffffffffffffffffffffffffff1673ffffffffffffffffffffffffffffffffffffffff1681526020019081526020015f205f8282546101cb919061046c565b925050819055504260025f3373ffffffffffffffffffffffffffffffffffffffff1673ffffffffffffffffffffffffffffffffffffffff1681526020019081526020015f208190555060035f3373ffffffffffffffffffffffffffffffffffffffff1673ffffffffffffffffffffffffffffffffffffffff1681526020019081526020015f205481111561029c578060035f3373ffffffffffffffffffffffffffffffffffffffff1673ffffffffffffffffffffffffffffffffffffffff1681526020019081526020015f20819055505b803373ffffffffffffffffffffffffffffffffffffffff167f244b609467f102cd863d9a3f9851d838acb24e1186953585f9dbf6bef42fb9ea4260015f3373ffffffffffffffffffffffffffffffffffffffff1673ffffffffffffffffffffffffffffffffffffffff1681526020019081526020015f20545f546040516103259392919061049f565b60405180910390a350565b5f819050919050565b61034281610330565b82525050565b5f60208201905061035b5f830184610339565b92915050565b5f80fd5b5f73ffffffffffffffffffffffffffffffffffffffff82169050919050565b5f61038e82610365565b9050919050565b61039e81610384565b81146103a8575f80fd5b50565b5f813590506103b981610395565b92915050565b5f602082840312156103d4576103d3610361565b5b5f6103e1848285016103ab565b91505092915050565b6103f381610330565b81146103fd575f80fd5b50565b5f8135905061040e816103ea565b92915050565b5f6020828403121561042957610428610361565b5b5f61043684828501610400565b91505092915050565b7f4e487b71000000000000000000000000000000000000000000000000000000005f52601160045260245ffd5b5f61047682610330565b915061048183610330565b92508282019050808211156104995761049861043f565b5b92915050565b5f6060820190506104b25f830186610339565b6104bf6020830185610339565b6104cc6040830184610339565b94935050505056fea2646970667358221220490908de66f2dcd49d6dbce59684fcf68571b65a2c80624248b80240b0c7c8b164736f6c63430008140033","linkReferences":{}},"methodIdentifiers":{"bestRecordedScore(address)":"243e9aba","lastSeenAt(address)":"73895bf7","playerPresenceCount(address)":"959f93d6","recordPresence(uint256)":"fe369103","totalPresenceRecords()":"1be763be"},"id":0}