{"contracts/PresenceRegistry.sol":{"PresenceRegistry":{"abi":[{"anonymous":false,"inputs":[{"indexed":true,"internalType":"address","name":"player","type":"address"},{"indexed":true,"internalType":"uint256","name":"score","type":"uint256"},{"indexed":false,"internalType":"uint256","name":"timestamp","type":"uint256"},{"indexed":false,"internalType":"uint256","name":"playerPresenceCount","type":"uint256"},{"indexed":false,"internalType":"uint256","name":"totalPresenceRecords","type":"uint256"}],"name":"PresenceRecorded","type":"event"},{"inputs":[{"internalType":"address","name":"","type":"address"}],"name":"bestRecordedScore","outputs":[{"internalType":"uint256","name":"","type":"uint256"}],"stateMutability":"view","type":"function"},{"inputs":[{"internalType":"address","name":"","type":"address"}],"name":"lastSeenAt","outputs":[{"internalType":"uint256","name":"","type":"uint256"}],"stateMutability":"view","type":"function"},{"inputs":[{"internalType":"address","name":"","type":"address"}],"name":"playerPresenceCount","outputs":[{"internalType":"uint256","name":"","type":"uint256"}],"stateMutability":"view","type":"function"},{"inputs":[{"internalType":"uint256","name":"score","type":"uint256"}],"name":"recordPresence","outputs":[],"stateMutability":"nonpayable","type":"function"},{"inputs":[],"name":"totalPresenceRecords","outputs":[{"internalType":"uint256","name":"","type":"uint256"}],"stateMutability":"view","type":"function"}],"evm":{"bytecode":{"linkReferences":{},"object":"608060405234801561001057600080fd5b50610261806100206000396000f3fe608060405234801561001057600080fd5b50600436106100575760003560e01c80631be763be1461005c578063243e9aba1461007757806373895bf714610097578063959f93d6146100b7578063fe369103146100d7575b600080fd5b61006560005481565b60405190815260200160405180910390f35b6100656100853660046101bb565b60036020526000908152604090205481565b6100656100a53660046101bb565b60026020526000908152604090205481565b6100656100c53660046101bb565b60016020526000908152604090205481565b6100ea6100e53660046101eb565b6100ec565b005b60016000808282546100fe9190610204565b90915550503360009081526001602081905260408220805491929091610125908490610204565b90915550503360009081526002602090815260408083204290556003909152902054811115610161573360009081526003602052604090208190555b3360008181526001602090815260408083205492548151428152928301939093528101919091528291907f244b609467f102cd863d9a3f9851d838acb24e1186953585f9dbf6bef42fb9ea9060600160405180910390a350565b6000602082840312156101cd57600080fd5b81356001600160a01b03811681146101e457600080fd5b9392505050565b6000602082840312156101fd57600080fd5b5035919050565b8082018082111561022557634e487b7160e01b600052601160045260246000fd5b9291505056fea264697066735822122019bab62ae4aad29e5e4ab7455285cf07e31c0f888d810184d763721e87e2a78264736f6c63430008140033","opcodes":"PUSH1 0x80 PUSH1 0x40 MSTORE CALLVALUE DUP1 ISZERO PUSH2 0x10 JUMPI PUSH1 0x0 DUP1 REVERT JUMPDEST POP PUSH2 0x261 DUP1 PUSH2 0x20 PUSH1 0x0 CODECOPY PUSH1 0x0 RETURN INVALID PUSH1 0x80 PUSH1 0x40 MSTORE CALLVALUE DUP1 ISZERO PUSH2 0x10 JUMPI PUSH1 0x0 DUP1 REVERT JUMPDEST POP PUSH1 0x4 CALLDATASIZE LT PUSH2 0x57 JUMPI PUSH1 0x0 CALLDATALOAD PUSH1 0xE0 SHR DUP1 PUSH4 0x1BE763BE EQ PUSH2 0x5C JUMPI DUP1 PUSH4 0x243E9ABA EQ PUSH2 0x77 JUMPI DUP1 PUSH4 0x73895BF7 EQ PUSH2 0x97 JUMPI DUP1 PUSH4 0x959F93D6 EQ PUSH2 0xB7 JUMPI DUP1 PUSH4 0xFE369103 EQ PUSH2 0xD7 JUMPI JUMPDEST PUSH1 0x0 DUP1 REVERT JUMPDEST PUSH2 0x65 PUSH1 0x0 SLOAD DUP2 JUMP JUMPDEST PUSH1 0x40 MLOAD SWAP1 DUP2 MSTORE PUSH1 0x20 ADD PUSH1 0x40 MLOAD DUP1 SWAP2 SUB SWAP1 RETURN JUMPDEST PUSH2 0x65 PUSH2 0x85 CALLDATASIZE PUSH1 0x4 PUSH2 0x1BB JUMP JUMPDEST PUSH1 0x3 PUSH1 0x20 MSTORE PUSH1 0x0 SWAP1 DUP2 MSTORE PUSH1 0x40 SWAP1 KECCAK256 SLOAD DUP2 JUMP JUMPDEST PUSH2 0x65 PUSH2 0xA5 CALLDATASIZE PUSH1 0x4 PUSH2 0x1BB JUMP JUMPDEST PUSH1 0x2 PUSH1 0x20 MSTORE PUSH1 0x0 SWAP1 DUP2 MSTORE PUSH1 0x40 SWAP1 KECCAK256 SLOAD DUP2 JUMP JUMPDEST PUSH2 0x65 PUSH2 0xC5 CALLDATASIZE PUSH1 0x4 PUSH2 0x1BB JUMP JUMPDEST PUSH1 0x1 PUSH1 0x20 MSTORE PUSH1 0x0 SWAP1 DUP2 MSTORE PUSH1 0x40 SWAP1 KECCAK256 SLOAD DUP2 JUMP JUMPDEST PUSH2 0xEA PUSH2 0xE5 CALLDATASIZE PUSH1 0x4 PUSH2 0x1EB JUMP JUMPDEST PUSH2 0xEC JUMP JUMPDEST STOP JUMPDEST PUSH1 0x1 PUSH1 0x0 DUP1 DUP3 DUP3 SLOAD PUSH2 0xFE SWAP2 SWAP1 PUSH2 0x204 JUMP JUMPDEST SWAP1 SWAP2 SSTORE POP POP CALLER PUSH1 0x0 SWAP1 DUP2 MSTORE PUSH1 0x1 PUSH1 0x20 DUP2 SWAP1 MSTORE PUSH1 0x40 DUP3 KECCAK256 DUP1 SLOAD SWAP2 SWAP3 SWAP1 SWAP2 PUSH2 0x125 SWAP1 DUP5 SWAP1 PUSH2 0x204 JUMP JUMPDEST SWAP1 SWAP2 SSTORE POP POP CALLER PUSH1 0x0 SWAP1 DUP2 MSTORE PUSH1 0x2 PUSH1 0x20 SWAP1 DUP2 MSTORE PUSH1 0x40 DUP1 DUP4 KECCAK256 TIMESTAMP SWAP1 SSTORE PUSH1 0x3 SWAP1 SWAP2 MSTORE SWAP1 KECCAK256 SLOAD DUP2 GT ISZERO PUSH2 0x161 JUMPI CALLER PUSH1 0x0 SWAP1 DUP2 MSTORE PUSH1 0x3 PUSH1 0x20 MSTORE PUSH1 0x40 SWAP1 KECCAK256 DUP2 SWAP1 SSTORE JUMPDEST CALLER PUSH1 0x0 DUP2 DUP2 MSTORE PUSH1 0x1 PUSH1 0x20 SWAP1 DUP2 MSTORE PUSH1 0x40 DUP1 DUP4 KECCAK256 SLOAD SWAP3 SLOAD DUP2 MLOAD TIMESTAMP DUP2 MSTORE SWAP3 DUP4 ADD SWAP4 SWAP1 SWAP4 MSTORE DUP2 ADD SWAP2 SWAP1 SWAP2 MSTORE DUP3 SWAP2 SWAP1 PUSH32 0x244B609467F102CD863D9A3F9851D838ACB24E1186953585F9DBF6BEF42FB9EA SWAP1 PUSH1 0x60 ADD PUSH1 0x40 MLOAD DUP1 SWAP2 SUB SWAP1 LOG3 POP JUMP JUMPDEST PUSH1 0x0 PUSH1 0x20 DUP3 DUP5 SUB SLT ISZERO PUSH2 0x1CD JUMPI PUSH1 0x0 DUP1 REVERT JUMPDEST DUP2 CALLDATALOAD PUSH1 0x1 PUSH1 0x1 PUSH1 0xA0 SHL SUB DUP2 AND DUP2 EQ PUSH2 0x1E4 JUMPI PUSH1 0x0 DUP1 REVERT JUMPDEST SWAP4 SWAP3 POP POP POP JUMP JUMPDEST PUSH1 0x0 PUSH1 0x20 DUP3 DUP5 SUB SLT ISZERO PUSH2 0x1FD JUMPI PUSH1 0x0 DUP1 REVERT JUMPDEST POP CALLDATALOAD SWAP2 SWAP1 POP JUMP JUMPDEST DUP1 DUP3 ADD DUP1 DUP3 GT ISZERO PUSH2 0x225 JUMPI PUSH4 0x4E487B71 PUSH1 0xE0 SHL PUSH1 0x0 MSTORE PUSH1 0x11 PUSH1 0x4 MSTORE PUSH1 0x24 PUSH1 0x0 REVERT JUMPDEST SWAP3 SWAP2 POP POP JUMP INVALID LOG2 PUSH5 0x6970667358 0x22 SLT KECCAK256 NOT 0xBA 0xB6 0x2A 0xE4 0xAA 0xD2 SWAP15 0x5E 0x4A 0xB7 GASLIMIT MSTORE DUP6 0xCF SMOD 0xE3 SHR 0xF DUP9 DUP14 DUP2 ADD DUP5 0xD7 PUSH4 0x721E87E2 0xA7 DUP3 PUSH5 0x736F6C6343 STOP ADDMOD EQ STOP CALLER "},"methodIdentifiers":{"bestRecordedScore(address)":"243e9aba","lastSeenAt(address)":"73895bf7","playerPresenceCount(address)":"959f93d6","recordPresence(uint256)":"fe369103","totalPresenceRecords()":"1be763be"}}}}}