{
  "_format": "hh-sol-artifact-1",
  "contractName": "PresenceRegistry",
  "sourceName": "contracts/PresenceRegistry.sol",
  "abi": [
    {
      "anonymous": false,
      "inputs": [
        {
          "indexed": true,
          "internalType": "address",
          "name": "player",
          "type": "address"
        },
        {
          "indexed": true,
          "internalType": "uint256",
          "name": "score",
          "type": "uint256"
        },
        {
          "indexed": false,
          "internalType": "uint256",
          "name": "timestamp",
          "type": "uint256"
        },
        {
          "indexed": false,
          "internalType": "uint256",
          "name": "playerPresenceCount",
          "type": "uint256"
        },
        {
          "indexed": false,
          "internalType": "uint256",
          "name": "totalPresenceRecords",
          "type": "uint256"
        }
      ],
      "name": "PresenceRecorded",
      "type": "event"
    },
    {
      "inputs": [
        {
          "internalType": "address",
          "name": "",
          "type": "address"
        }
      ],
      "name": "bestRecordedScore",
      "outputs": [
        {
          "internalType": "uint256",
          "name": "",
          "type": "uint256"
        }
      ],
      "stateMutability": "view",
      "type": "function"
    },
    {
      "inputs": [
        {
          "internalType": "address",
          "name": "",
          "type": "address"
        }
      ],
      "name": "lastSeenAt",
      "outputs": [
        {
          "internalType": "uint256",
          "name": "",
          "type": "uint256"
        }
      ],
      "stateMutability": "view",
      "type": "function"
    },
    {
      "inputs": [
        {
          "internalType": "address",
          "name": "",
          "type": "address"
        }
      ],
      "name": "playerPresenceCount",
      "outputs": [
        {
          "internalType": "uint256",
          "name": "",
          "type": "uint256"
        }
      ],
      "stateMutability": "view",
      "type": "function"
    },
    {
      "inputs": [
        {
          "internalType": "uint256",
          "name": "score",
          "type": "uint256"
        }
      ],
      "name": "recordPresence",
      "outputs": [],
      "stateMutability": "nonpayable",
      "type": "function"
    },
    {
      "inputs": [],
      "name": "totalPresenceRecords",
      "outputs": [
        {
          "internalType": "uint256",
          "name": "",
          "type": "uint256"
        }
      ],
      "stateMutability": "view",
      "type": "function"
    }
  ],
  "bytecode": "0x608060405234801561001057600080fd5b50610261806100206000396000f3fe608060405234801561001057600080fd5b50600436106100575760003560e01c80631be763be1461005c578063243e9aba1461007757806373895bf714610097578063959f93d6146100b7578063fe369103146100d7575b600080fd5b61006560005481565b60405190815260200160405180910390f35b6100656100853660046101bb565b60036020526000908152604090205481565b6100656100a53660046101bb565b60026020526000908152604090205481565b6100656100c53660046101bb565b60016020526000908152604090205481565b6100ea6100e53660046101eb565b6100ec565b005b60016000808282546100fe9190610204565b90915550503360009081526001602081905260408220805491929091610125908490610204565b90915550503360009081526002602090815260408083204290556003909152902054811115610161573360009081526003602052604090208190555b3360008181526001602090815260408083205492548151428152928301939093528101919091528291907f244b609467f102cd863d9a3f9851d838acb24e1186953585f9dbf6bef42fb9ea9060600160405180910390a350565b6000602082840312156101cd57600080fd5b81356001600160a01b03811681146101e457600080fd5b9392505050565b6000602082840312156101fd57600080fd5b5035919050565b8082018082111561022557634e487b7160e01b600052601160045260246000fd5b9291505056fea264697066735822122019bab62ae4aad29e5e4ab7455285cf07e31c0f888d810184d763721e87e2a78264736f6c63430008140033",
  "linkReferences": {},
  "deployedLinkReferences": {}
}